:100000000C94E2060C940A070C940A070C940A0755
:100010000C940A070C940A070C940A070C940A071C
:100020000C940A070C940A070C940A070C946E1897
:100030000C940A070C940A070C940A070C940A07FC
:100040000C9432190C940A070C94BC1D0C94FF1DDF
:100050000C940A070C940A070C940A070C940A07DC
:100060000C940A070C940A07200080001C001C0056
:100070009C009C009C00DC00FC00FC00F800B80028
:1000800018000000C000F800FE00FC00F000E800CE
:100090008000E600F000F800F800180038007C004E
:1000A0007C00DE00F800F8003C003E00FC00F80098
:1000B000BC00F800F800F000FE00FD00FC00F800B5
:1000C0000100F000FC00FC00DC00DC00EC00CE00D5
:1000D0008F000E0006000000010018001C001D002B
:1000E0001F001F001F001F002F002F007F00F900BE
:1000F000FF003F000F001F002F004F008F000F0078
:100100001F001F007F00FF00DF001E001C000C000E
:100110000C000F004F001F001E001E000F008F007C
:100120002B000F001F001800C100C300CF007F008C
:100130007E007100F3007500780079003B003F00FD
:100140003F001F000200800020000000000080002F
:10015000010000002C003C003C003C007C007C00C6
:100160003C003C001E001C001E009C009C00FC008B
:10017000F800F800700035000000110000000000D9
:10018000C000F800FF00FF00F800E800C000000019
:100190004000000000008000E000F000F000F000EF
:1001A000F800B900180018003E00FE00FC00040032
:1001B0001400F600E000F000FC00FC007C007C0075
:1001C000FC00F800F8001800F800F800FC00E0005F
:1001D000E00088004000BE00FC00F800F100A00034
:1001E00010000000000020000000000000000000DF
:1001F00000000000000000000000000000000000FF
:100200008000C000EC00FE00FE00FE00FC00BE000E
:10021000BF009F00BF001F001D001C001C00BC0091
:10022000F800FD00FC00FE003F00BF00BF00BF0063
:10023000BF00BF00BF00FF00FE00F800F800FF0095
:10024000FF00FF00FF00FF00E300C000800084000B
:1002500080000300070011006600FF00FF00FF00A0
:10026000E100C0008200D000F800FF00FF007E0027
:100270003F00FF00FF000700030027000F003F00C2
:100280007F00FF00FF00FA00C00004000000000033
:10029000000000000000000000000400000000005A
:1002A0000800000006004700070007000F000700D5
:1002B000070007000700070087004700030003004E
:1002C00003003B00FF00FF003F008F00070003001A
:1002D0000B00030001000100030001008300030084
:1002E00003000300070047001F005F007F00EF00CE
:1002F000C7004700070007000300030007000300D2
:100300000700030083000300070007000700030045
:100310000300310040000000400003001F000E00F9
:1003200000000000000000001800000007001F008F
:100330003F00740000000200000000000000000008
:1003400000000000000000000000000000000000AD
:10035000000000000000000000000000000000009D
:100360000000080000000000200006004700010017
:10037000000000000000000000000000000000007D
:1003800080000A002000C000F800FC003E00BC0015
:100390003C003C001E002C009C001E001E003E0085
:1003A0000F008F0027000800180000000000000068
:1003B000000000000000000000000000000000003D
:1003C000000000000000000000000000000000002D
:1003D000000000000000000000000000000000001D
:1003E000000000000000000000000000000000000D
:1003F00000000000000000000000000000000000FD
:1004000000000000000000000000000000000000EC
:1004100000000000000000000000000000000000DC
:1004200000000000000000000000000002001F00AB
:10043000BF001F000F000F002F000F004F006F00C4
:100440007E00FE00FC00FC00F800D0000000000070
:10045000020002008800010000000000000000000F
:10046000000000000000000000000000000000008C
:10047000000000000000000000000000000000007C
:10048000000000000000000000000000000000006C
:10049000000000000000000000000000000000005C
:1004A000000000000000000000000000000000004C
:1004B000000000000000000000000000000000003C
:1004C00030000000C000C000E100E000E00060007B
:1004D00072007A007800780068006F003C003C00F1
:1004E000BE003E003E003F001F001F003F00BF0057
:1004F0000F0023000000000010000000800000003A
:1005000000000000000000000000000000000000EB
:1005100000000000000000000000000000000000DB
:1005200000000000000000000000000000000000CB
:1005300000000000000000009505B905F005260642
:1005400077068E06E7063C078A07D807F1074408B6
:1005500081089808D1082709300944094A09500937
:1005600056097209AD09DD09616464696E6720008E
:100570002D007365656E20612072656C6174696F12
:100580006E73686970206265747765656E200020FF
:10059000616E64200030386830302D303930303AA8
:1005A00020436F6666656520616E642052656769E9
:1005B0007374726174696F6E0030396830302D3039
:1005C000396831353A204D6172636F20536C617622
:1005D0006965726F202D2057656C636F6D652061B2
:1005E0006E6420686F7573656B656570696E670012
:1005F00030396831352D31306830303A20547972D5
:100600006F6E6520457261736D7573202D20506586
:100610006E74657374696E672077697468204D65C0
:1006200072637572790031306830302D3130683442
:10063000353A20476C656E6E2057696C6B696E7336
:100640006F6E202D20546572726F7269736D2C74F9
:100650007261636B696E672C707269766163792071
:10066000616E642068756D616E20696E746572617B
:100670006374696F6E730031306834352D313168C1
:1006800030303A2054656120427265616B0031312F
:100690006830302D31316833303A2053696D656FE1
:1006A0006E204D6974656666202D20416C746572FC
:1006B0006E61746976657320746F207374617465FC
:1006C00066756C207061636B65742066696C746517
:1006D00072696E6720696E20522645206E657477B8
:1006E0006F726B696E670031316830302D3131685F
:1006F00033303A204D616E75656C20436F727265C0
:100700006765646F72202D20416E74692D6D616C78
:100710007761726520546563686E697175652045FF
:1007200076616C7561746F72202841544529202DC3
:100730002050776E696E67204156730031316833FF
:10074000302D31326830303A20526F737320536944
:100750006D70736F6E202D204861636B696E67202A
:1007600047616D657320286F722027776879206351
:100770006C69656E742073696465206C6F6769636A
:100780002069732062616427290031326833302D7B
:1007900031336830303A204A6F73687561202D20FC
:1007A00048544D4C35206578706C6F697473206FB8
:1007B00072202743757474696E67207468652065BC
:1007C000646765206F6E2077656220646576656C6E
:1007D0006F706D656E74270031336830302D3134A1
:1007E0006830303A204C756E636820427265616BE8
:1007F0000031346830302D31346835353A20416E5F
:1008000064726577204D616350686572736F6E2006
:100810002D2038384D50483A204469676974616C1E
:1008200020747269636B7320746F206279706173D6
:100830007320506879736963616C207365637572A6
:100840006974790031346835352D31356835353A7C
:10085000204A616371756573204C6F7577202D2078
:100860004F6666656E7369766520536F667477614F
:10087000726520446566696E656420526164696FC3
:100880000031356835352D31366831353A205465BB
:100890006120427265616B0031366831352D313629
:1008A0006835353A20536368616C6B204865756E16
:1008B0006973202D20496E666F726D6174696F6E69
:1008C0002066726F6D20445343204B6579627573C7
:1008D0000031366835352D31376834303A20546F61
:1008E0006D2056616E2064656E20426F6E202D2053
:1008F000555342205265766572736520456E67696F
:100900006E656572696E672C204A75737420617319
:10091000206D7563682066756E2061732052532DBB
:10092000323332205245005363686564756C65004C
:100930004C69766520537065616B657220557064F3
:100940006174650053746174730041626F75740063
:10095000496E74726F0042616467657320646573E9
:1009600069676E656420666F72205A61436F6E20FE
:1009700056005370656369616C207468616E6B73B7
:1009800020746F2065766572796F6E652077686F69
:10099000207375626D697474656420616E64206D86
:1009A000616465206974206772656174004B6565D8
:1009B0007020746865736520626164676573206187
:1009C0007320746F6B656E73206F66206F75722075
:1009D000617070726563696174696F6E0046726FF1
:1009E0006D20416E647265774D6F6861776B206131
:1009F0006E642070656F706C65407A61636F6E2EF7
:100A00006F72672E7A61000406205F00000003A069
:100A100000C00C00F94F806BEB00988C8052A580D1
:100A200003000001C88089C00050850021C2000871
:100A30004000208200002000188C00FA2F804BE03C
:100A4000805A66808AA500E08F80EAAB0072A90018
:100A50009A8C00FAAF804AA70001400009400021AB
:100A6000488051450089420042660072A6807A871C
:100A700080FAA500722500FA2700FAA880FA8800FB
:100A8000722B00F88F808BE8808BE800F88D80F85F
:100A90002080F90F80F9CF80722700FA8400722736
:100AA00040FA85804AA90083E800F02F00E06E003C
:100AB000F0EF00D88D80C0EC009AAC8003E880C0D5
:100AC00081808BE000420400082080020400312372
:100AD00080F92300312480312F8031628023EA00A5
:100AE000255380F9038002E00006E000F84280030D
:100AF000E0007987803903803123007D230031278E
:100B0000C078840029400043E4007027006066003C
:100B100070670048C48074578059E68023E88003DA
:100B200060008BE200610C000608205F00000000FE
:100B300000000000002F0000000007000700001464
:100B40007F147F1400242A7F2A1200231308646272
:100B500000364955225000000503000000001C2209
:100B60004100000041221C000014083E0814000847
:100B7000083E0808000000A06000000808080808F7
:100B8000000060600000002010080402003E51498F
:100B9000453E0000427F400000426151494600212D
:100BA00041454B31001814127F1000274545453947
:100BB000003C4A49493000017109050300364949A2
:100BC000493600064949291E00003636000000005B
:100BD00056360000000814224100001414141414A6
:100BE000000041221408000201510906003249594F
:100BF000513E007C1211127C007F49494936003E6B
:100C000041414122007F4141221C007F4949494125
:100C1000007F09090901003E4149497A007F08081F
:100C2000087F0000417F4100002040413F01007FDC
:100C300008142241007F40404040007F020C027FA8
:100C4000007F0408107F003E4141413E007F0909BA
:100C50000906003E4151215E007F091929460046E0
:100C6000494949310001017F0101003F4040403FB7
:100C7000001F2040201F003F4038403F0063140801
:100C800014630007087008070061514945430000DC
:100C90007F414100AA55AA55AA55000041417F0055
:100CA00000040201020400404040404000000305EF
:100CB0000000002054545478007F484444380038E1
:100CC0004444442000384444487F00385454541865
:100CD00000087E0901020018A4A4A47C007F080477
:100CE00004780000447D4000004080847D00007F47
:100CF000102844000000417F4000007C0418047864
:100D0000007C0804047800384444443800FC24245F
:100D100024180018242418FC007C08040408004847
:100D20005454542000043F444020003C4040207C68
:100D3000001C2040201C003C4030403C0044281057
:100D40002844001CA0A0A07C004464544C44000033
:100D5000107C8200000000FF00000000827C100078
:100D60000000060909060000000700020100000358
:100D7000040600000000000000000102040810202A
:100D8000408001020408102001020408102004041D
:100D90000404040404040202020202020303030323
:100DA00003030000000023002600290000000000CB
:100DB000250028002B0000000000240027002A0046
:100DC0003C0FBB1E11241FBECFEFD8E0DEBFCDBF4E
:100DD00013E0A0E0B1E0E8E8F1E502C005900D9273
:100DE000A230B107D9F716E0A2E0B3E001C01D922E
:100DF000AB3EB107E1F71DE0C4ECDDE004C0229793
:100E0000FE010E94E222C03CD107C9F70E94131DD7
:100E10000C94C2280C9400001F93CF93DF93EC0135
:100E2000462F172FBC018CEC95E00E94570FBE0196
:100E30006F5F7F4F412F8CEC95E0DF91CF911F9139
:100E40000C94570F1F93CF93DF93EC01BC018CECF4
:100E500095E00E94540F182FBE016F5F7F4F8CECFE
:100E600095E00E94540F382F20E0210F311DC90159
:100E7000DF91CF911F910895EF92FF920F931F93EF
:100E8000CF93DF93EC0184E993E00E94651080E149
:100E9000E82EF12C08E310E028E630E040E050E0D6
:100EA0006EE070E084E993E00E943E1584E993E0EF
:100EB0000E94421067E07AE084E993E00E940E13FA
:100EC00020E130E04EE057E2BE0184E993E00E9469
:100ED0006A1284E993E0DF91CF911F910F91FF9007
:100EE000EF900C94421068E27BE084E993E00E946A
:100EF0000E1329E130E04EE057E26CED71E084E939
:100F000093E00E946A1267E07AE084E993E00E942D
:100F10000E13E0910E03F0910F03EE0FFF1FEA5A3C
:100F2000FA4F85919491BC0180E393E00E946D2576
:100F300023E230E04EE057E260E373E084E993E0BF
:100F40000E946A1284E993E00E94421068E27BE00A
:100F500084E993E00C940E130F931F93CF93DF93C8
:100F600084E993E00E946510C0E0D0E000E310E067
:100F70009E0140E050E0BE0184E993E00E9491139D
:100F800084E993E00E9442102196C435D10571F79F
:100F900084E993E0DF91CF911F910F910C9465103C
:100FA000EF92FF920F931F9384E993E00E946510E4
:100FB00020E3E22EF12C04E510E028E431E040E0EB
:100FC00050E060E070E084E993E00E943E1584E91F
:100FD00093E00E94421060ED77E080E090E00E9494
:100FE000B8190E94AC0784E993E00E94651028E4D8
:100FF00031E040E050E060E070E084E993E00E947E
:101000003E1584E993E00E94421061E084E993E098
:101010000E94E91060ED77E080E090E00E94B8194E
:1010200060E084E993E00E94E91084E993E01F9175
:101030000F91FF90EF900C946510DF92EF92FF926A
:101040000F931F93CF93DF93CDB7DEB72B970FB6D8
:10105000F894DEBF0FBECDBF8C01FC01208166E39A
:1010600072E08DE396E02B870E94701FB8018DE33C
:1010700096E00E94701F6AE372E08DE396E00E94A2
:10108000A31F2B85233509F077C0B8016F5F7F4F11
:1010900044E050E0CE0101960E9484251D82CE01DD
:1010A00001960E944F258C01E12CF12CD12C0DC012
:1010B000FFEFEF1AFF0AC701880F991F0E9422074E
:1010C0008017910711F4DD24D3948091C605909187
:1010D000C705E816F90664F3D1100DC09C012F5F17
:1010E0003F4F3093C7052093C6050296B801880F7D
:1010F000991F0E940C072091BA053091BB05ECEBBB
:10110000F5E080E090E060E007C041915191401728
:10111000510709F461E0019682179307B4F3611156
:10112000B4C02530310521F41092BB051092BA05E8
:1011300068E675E08DE396E00E944F1F4AE050E0BC
:10114000B8018DE396E00E945E2060E775E08DE3D4
:1011500096E00E948F1F8091BA059091BB05FC011B
:10116000EE0FFF1FE454FA4F118300830196909312
:10117000BB058093BA0589C0223509F086C0B80145
:101180006F5F7F4F44E050E0CE0106960E948425B9
:101190001A86CE0106960E944F257C01B8016A5F2F
:1011A0007F4F44E050E0CE0101960E9484251D82CD
:1011B000CE0101960E944F258C01809120019091D3
:1011C0002101E816F90609F460C00817190709F4A7
:1011D0005CC08091A4059091A505E6EAF5E0A0EB3E
:1011E000B5E020E030E0D12C17C04D915D914E1557
:1011F0005F0529F4608171816017710741F0401724
:10120000510739F4408151814E155F0511F4DD24F9
:10121000D3942F5F3F4F32962817390734F3D110FC
:1012200034C09C01220F331FF901E055FA4FF182BF
:10123000E082F901EA55FA4F118300830196853067
:10124000910529F09093A5058093A40504C0109200
:10125000A5051092A40562E775E08DE396E00E9473
:101260004F1F4AE050E0B8018DE396E00E945E20F7
:101270006FE875E08DE396E00E944F1F4AE050E072
:10128000B7018DE396E00E9466202B960FB6F89486
:10129000DEBF0FBECDBFDF91CF911F910F91FF90A9
:1012A000EF90DF9008956CE372E08DE396E00E948A
:1012B000701F0E940A194AE050E0BC018DE396E0DD
:1012C0000C946620EF92FF920F931F93CF93DF93BE
:1012D00040E855E260E070E08DE396E00E943A1E3F
:1012E00080E00E94191A0E945D1B20ED37E040E06B
:1012F00050E06EE571E080E090E00E94911B609309
:101300001C0170931D0180931E0190931F0185E0C5
:1013100090E090931901809318018FE090E09093F2
:10132000170180931601E0E1F3E001900020E9F756
:101330003197E051F340F0931501E093140166E416
:1013400070E084E993E00E94721068E27BE084E937
:1013500093E00E940E1386E00E94091687E00E9427
:101360000C1681E00E940F1680ED97E00E94B516E2
:101370000E949D1780E090E00E942207609120016A
:10138000709121018617970749F482E090E00E944E
:1013900022079093C7058093C6050AC080E090E0BD
:1013A0000E940C0760E070E082E090E00E940C0771
:1013B000CCEBD5E000EB15E0A6EAEA2EA5E0FA2E8C
:1013C0002FE037E240E050E067E574E080E090E035
:1013D0000E94911B699379932FE037E240E050E03F
:1013E00067E574E080E090E00E94911BF801619352
:1013F00071938F012FE037E240E050E067E574E041
:1014000080E090E00E94911BF701619371937F014E
:10141000F5E0C63CDF07A1F660E08FE00E94C51A48
:1014200061E08FE00E94FD1A60E080E10E94C51A31
:1014300061E080E10E94FD1A60E081E10E94C51A2E
:1014400061E081E10E94FD1A60E082E10E94C51A1C
:1014500061E082E10E94FD1A61E080910E010E942C
:10146000C51A61E080910C010E94C51A61E080916B
:101470000A010E94C51A0E94D0076AE472E08DE357
:1014800096E00E94A31F0E94530968EE73E080E07B
:1014900090E0DF91CF911F910F91FF90EF900C940E
:1014A000B8198F929F92AF92BF92CF92DF92EF9234
:1014B000FF920F931F93CF93DF938FE00E94341B13
:1014C0006C0180E10E94341B7C0181E10E94341B8D
:1014D0008C0182E10E94341BEC010E947C198090F7
:1014E000020390900303A0900403B09005036819D1
:1014F00079098A099B098090100190901101A090B0
:101500001201B090130186169706A806B906B4F525
:10151000CD2849F46BE572E08DE396E00E94A31FAD
:1015200021E030E02DC0EF2849F465E672E08DE35C
:1015300096E00E94A31F22E030E022C0012B49F474
:101540006FE672E08DE396E00E94A31F23E030E097
:1015500017C0CD2B49F469E772E08DE396E00E9455
:10156000A31F24E030E00CC00E947C1960930203AA
:101570007093030380930403909305032FEF3FEFD1
:10158000C901DF91CF911F910F91FF90EF90DF90F4
:10159000CF90BF90AF909F908F900895CF93DF939F
:1015A000CDB7DEB72E970FB6F894DEBF0FBECDBF16
:1015B00080910A0390910B03892B09F060C083E8A6
:1015C00092E00E943C0767E07AE084E993E00E94A1
:1015D0000E1369E872E0CE0108960E94201C60910B
:1015E000200170912101CE0108960E94B71CBE0116
:1015F000685F7F4FCE0101960E94541C29E130E0C4
:1016000040E050E0BE016F5F7F4F84E993E00E94AD
:10161000CB12CE0101960E94AF1B67E972E0CE01AA
:1016200008960E945E1C6091C6057091C705CE01A8
:1016300008960E94B71CBE01685F7F4FCE010196DD
:101640000E94541C20E230E040E050E0BE016F5F99
:101650007F4F84E993E00E94CB12CE0101960E9455
:10166000AF1B84E993E00E94421081E090E09093E8
:101670000B0380930A03CE0108960E94AF1B0E94C1
:10168000510A049741F410920B0310920A0310922E
:101690000D0310920C032E960FB6F894DEBF0FBE0A
:1016A000CDBFDF91CF91089580910A0390910B03F4
:1016B000892B61F488EA92E00E943C070E9473073C
:1016C00081E090E090930B0380930A030E94510AFB
:1016D00081309105A1F410920B0310920A038091BE
:1016E0000E0390910F03009721F4809118019091BF
:1016F0001901019790930F0380930E030895823090
:101700009105E1F410920B0310920A0320910E034D
:1017100030910F03809118019091190101972817BA
:10172000390729F410920F0310920E0308952F5FCA
:101730003F4F30930F0320930E030895833091059C
:1017400079F510920B0310920A0380910E03909189
:101750000F03009749F469EB72E08DE396E00E9475
:10176000A31F81E090E00CC081309105F9F0823038
:10177000910519F484E090E003C08330910529F4C9
:1017800090930D0380930C030895049779F483E6F6
:1017900090E090930D0380930C030E94D00702C049
:1017A000049721F410920D0310920C0308954F92A8
:1017B0005F926F927F928F929F92AF92BF92CF92E1
:1017C000DF92EF92FF920F931F93CF93DF93CDB7EA
:1017D000DEB72E970FB6F894DEBF0FBECDBF809157
:1017E0000A0390910B03892B41F484E993E00E9452
:1017F000651085E392E00E943C07E0910803F091B8
:101800000903EE0FFF1FE85CFA4F85919491BC012C
:1018100080E393E00E946D25E0E3F3E0DF010D90AB
:101820000020E9F78D01015011090E1B1F0BC801A3
:1018300064E170E00E946F224B01E12CF12C82E107
:10184000A82EB12CC12CD12C40C0270165E372E039
:10185000CE0108960E94201CB4E1EB0EF11C32016F
:101860000EC06016710644F4F301E05DFC4F608128
:10187000CE0108960E94A41C8FEF681A780A6E1495
:101880007F0479F7BE01685F7F4FCE0101960E9409
:10189000541C950140E050E0BE016F5F7F4F84E92A
:1018A00093E00E94CB12CE0101960E94AF1B84E907
:1018B00093E00E944210CE0108960E94AF1BAFEF4A
:1018C000CA1ADA0AB6E0AB0EB11C8C149D040CF0F7
:1018D000BCCF81E090E090930B0380930A030E94B9
:1018E000510A8230910521F510920B0310920A03E0
:1018F00084E993E00E94651084E993E00E9442101D
:1019000020910803309109038091160190911701ED
:1019100001972817390729F4109209031092080338
:1019200030C02F5F3F4F309309032093080329C035
:1019300081309105E1F410920B0310920A0384E9BF
:1019400093E00E94651084E993E00E944210809128
:10195000080390910903009721F48091160190915A
:101960001701019790930903809308030AC0049715
:1019700041F410920B0310920A0310920D0310927F
:101980000C032E960FB6F894DEBF0FBECDBFDF91CD
:10199000CF911F910F91FF90EF90DF90CF90BF906C
:1019A000AF909F908F907F906F905F904F90089531
:1019B0004F925F926F927F928F929F92AF92BF925F
:1019C000CF92DF92EF92FF920F931F93CF93DF930B
:1019D000CDB7DEB72E970FB6F894DEBF0FBECDBFE2
:1019E00080910A0390910B03892B21F48AEC92E0F9
:1019F0000E943C07E0910603F0910703EE0FFF1FE2
:101A0000E05AFA4F85919491BC0180E393E00E94E3
:101A10006D25E0E3F3E0DF010D900020E9F78D0193
:101A2000015011090E1B1F0BC80164E170E00E94F8
:101A30006F224B01E12CF12C29E1A22EB12CC12CFB
:101A4000D12C40C0270165E372E0CE0108960E94C8
:101A5000201CB4E1EB0EF11C32010EC060167106C1
:101A600044F4F301E05DFC4F6081CE0108960E94D2
:101A7000A41C8FEF681A780A6E147F0479F7BE01F0
:101A8000685F7F4FCE0101960E94541C950140E093
:101A900050E0BE016F5F7F4F84E993E00E94CB125C
:101AA000CE0101960E94AF1B84E993E00E94421090
:101AB000CE0108960E94AF1BAFEFCA1ADA0AB6E051
:101AC000AB0EB11C8C149D040CF0BCCF60E373E032
:101AD0008DE396E00E94A31F0E94530981E090E0ED
:101AE00090930B0380930A030E94510A8230910560
:101AF00021F510920B0310920A0384E993E00E94EF
:101B0000651084E993E00E94421020910603309111
:101B1000070380911A0190911B010197281739073B
:101B200029F4109207031092060330C02F5F3F4F35
:101B3000309307032093060329C081309105E1F417
:101B400010920B0310920A0384E993E00E9465103F
:101B500084E993E00E94421080910603909107036C
:101B6000009721F480911A0190911B0101979093A5
:101B70000703809306030AC0049741F410920B03F5
:101B800010920A0310920D0310920C032E960FB6BA
:101B9000F894DEBF0FBECDBFDF91CF911F910F91A3
:101BA000FF90EF90DF90CF90BF90AF909F908F907D
:101BB0007F906F905F904F9008950F931F93CF93F6
:101BC000DF93EB018A01BC0180910E010E943A1A59
:101BD000B80180910A010E943A1ABE0180910C015D
:101BE000DF91CF911F910F910C943A1A40E050E091
:101BF00060E070E080E090E00C94DD0D40E050E0AB
:101C00006FEF70E080E090E00C94DD0D4FEF50E05E
:101C100060E070E080E090E00C94DD0DCF92DF9208
:101C2000EF92FF920F931F93CF93DF93CDB7DEB761
:101C3000C555D1090FB6F894DEBF0FBECDBF809158
:101C40000C0390910D03009719F40E94540B13C0DC
:101C50008130910519F40E94D70B0DC08230910597
:101C600051F08330910519F40E94D80C04C00497F8
:101C700011F40E94CE0A80E562968FAF62970E94AF
:101C80007C190091C8051091C9052091CA053091B1
:101C9000CB056B017C01C01AD10AE20AF30A00915C
:101CA0001C0110911D0120911E0130911F010C1586
:101CB0001D052E053F0508F0BAC063966FAF639708
:101CC00064967FAF649765968FAF659766969FAF72
:101CD00066970E94060E63966FAD639764967FAD1C
:101CE000649765968FAD659766969FAD669760938E
:101CF000C8057093C9058093CA059093CB0520ED64
:101D000037E040E050E06EE571E080E090E00E9456
:101D1000911B60931C0170931D0180931E01909391
:101D20001F01809121018F93809120018F9387ED76
:101D300092E09F938F9304E213E01F930F930E940E
:101D4000BC2566E0C8010E94AC170E94A71720912D
:101D5000A4053091A5050F900F900F900F900F9054
:101D60000F901216130664F5442737FD4095542F43
:101D700060E070E0CB010E94911B660F771FFB01B2
:101D8000EA55FA4F81818F9380818F93FB01E05553
:101D9000FA4F81818F9380818F938BED92E09F9397
:101DA0008F931F930F930E94BC256BE0C8010E9484
:101DB000AC170E94A7170FB6F894DEBF0FBECDBFB9
:101DC0002091BA053091BB051216130674F544270D
:101DD00037FD4095542F60E070E0CB010E94911BCD
:101DE000FB01EE0FFF1FE454FA4F81818F93808136
:101DF0008F93809121018F93809120018F938BEDA0
:101E000092E09F938F9384E293E09F938F930E943D
:101E1000BC256BE084E293E00E94AC170E94A717F8
:101E20000FB6F894DEBF0FBECDBF0E94F60DBE0107
:101E30006F5A7F4FCE0101960E944C18882361F0A3
:101E40000E94FE0D62966FAD629770E0CE01019622
:101E50000E941D080E94F60DCB5ADF4F0FB6F89472
:101E6000DEBF0FBECDBFDF91CF911F910F91FF90CD
:101E7000EF90DF90CF900895EF92FF920F931F9312
:101E80005CE0E52EF12C0BE010E02AE030E049E0C8
:101E900050E068E070E084E993E00E945B0F1F91DE
:101EA0000F91FF90EF900895CB010C94BD27CB01CB
:101EB000642F0C94C527AF92BF92DF92EF92FF92EE
:101EC0000F931F93CF93DF9300D0CDB7DEB75C01A4
:101ED000D62E862F972FFC01E257F24FE491F0E0C7
:101EE000EE0FFF1FE455F24F65917491F501608389
:101EF0007183FC01E658F24F8491F5018287FA0163
:101F0000E257F24FE491F0E0EE0FFF1FE455F24F7D
:101F100065917491F50162837383FA01E658F24F7B
:101F20008491F5018387F901E257F24FE491F0E0E3
:101F3000EE0FFF1FE455F24F85919491F5018483D4
:101F40009583F901E658F24F6491F5016487F80131
:101F5000E257F24FE491F0E0EE0FFF1FE455F24F2D
:101F600085919491F50186839783F801E658F24FA5
:101F70006491F5016587F701E257F24FE491F0E0D3
:101F8000EE0FFF1FE455F24F85919491F501808784
:101F90009187F701E658F24FA491F501A68761E019
:101FA0008D2D2A8349830E94C51A61E04981842FBF
:101FB0000E94C51A61E02A81822F0E94C51A61E041
:101FC000802F0E94C51A61E08E2D0E94C51AF5016E
:101FD000D786008B0F900F90DF91CF911F910F91BB
:101FE000FF90EF90DF90BF90AF900895FC012685A1
:101FF000A085B1858C9190E030E0209530958223CA
:1020000093238C93A481B581411109C024858C91BF
:1020100090E030E0209530958223932303C094858F
:102020008C91892B8C9348E0A281B38167FF04C017
:1020300093858C91892B08C023858C9190E030E0AA
:1020400020953095822393238C93660F2285A0815F
:10205000B1818C9190E030E02095309582239323DC
:102060008C9300009285A081B1818C91892B8C93F7
:102070004150D1F696850084F185E02D8081892B31
:10208000808308950F931F93CF93DF93EC0140E07B
:1020900060E40E94F60F40E060E8CE010E94F60F77
:1020A00000E010E0FE01E00FF11F41E0608DCE0185
:1020B0000E94F60F0F5F1F4F083F81E0180791F74E
:1020C000DF91CF911F910F91089520E030E0FC0146
:1020D000E20FF31F108E2F5F3F4F283F41E0340780
:1020E000B1F708950F931F93CF93DF93EC018B010A
:1020F000603871051CF477FD04C005C00FE710E0DF
:1021000002C000E010E09C85EC81FD818081892B7C
:1021100080839B85EA81FB818081892B80839A85DE
:10212000E881F9818081892B80839E85E885F98506
:102130008081892B80832D85EE81FF81808190E0D5
:1021400030E0209530958223932380836AE070E00D
:1021500080E090E00E94B8199D85EE81FF8180812A
:10216000892B808340E061E2CE010E94F60FB80126
:1021700060687F6F40E0CE010E94F60F40E066E0AD
:10218000CE010E94F60F40E063E1CE010E94F60FFF
:1021900040E060E2CE010E94F60F40E060E4CE0134
:1021A0000E94F60F40E060E8CE010E94F60F40E08A
:1021B0006CE0CE010E94F60FCE010E946510CE01A8
:1021C0000E9442101A8A198ADF91CF911F910F91B4
:1021D000089540E0662311F06DE001C06CE00C94BE
:1021E000F60F64357105F8F440335105E0F49A01B7
:1021F000E3E036952795EA95E1F7A4E5A29FF00183
:10220000A39FF00D1124E60FF71FE80FF91F477089
:10221000552781E090E0042E01C0880F0A94EAF768
:10222000908D982B908F08956435710500F540339B
:102230005105E8F49A01F3E036952795FA95E1F710
:10224000A4E5A29FF001A39FF00D1124E60FF71F54
:10225000E80FF91F4770552781E090E0042E01C078
:10226000880F0A94EAF78095908D9823908F0895AF
:102270002F923F924F925F926F927F928F929F9296
:10228000AF92BF92CF92DF92EF92FF920F931F9384
:10229000CF93DF9300D000D0CDB7DEB79C838B8384
:1022A000342E252E29833A83DC0154968C91549741
:1022B000382F377053969C91539770E055962C9118
:1022C000311179C0869586958695621B7109989F14
:1022D000C0011124689F4001699F900C789F900C69
:1022E0001124B4E08B0E911CE980FA80A12CB12C52
:1022F00051C0C12CD12CEB81FC8123892A9DC001C6
:102300002B9D900D1124860D971D0188F289E02DDB
:10231000E80FF91FE491F0E00C2C02C0F595E79569
:102320000A94E2F7AB81BC8157968C915797A6012E
:102330004E0D5F1DB801E0FF04C0811104C0CD0146
:1023400009C0811105C08B819C810E94141104C0B9
:102350008B819C810E94F110BFEFCB1ADB0AE8E071
:10236000CE16D10441F60F5F1F4FFFEF6F1A7F0AA1
:10237000980124193509AB81BC8153968C9190E06A
:10238000281739070CF4B5CFBFEFAB1ABB0AE8E04A
:10239000EE0EF11CAB81BC8154968C91869586958E
:1023A000869590E0A816B9060CF07DC0432C522CFF
:1023B00034018201DDCF621B7109989FC001112495
:1023C00097FD079613E0959587951A95E1F7689F15
:1023D0006001699FD00C789FD00C1124B4E0CB0E23
:1023E000D11CAB81BC815196ED91FC915297EC0DC3
:1023F000FD1D6490712C832C922C740107E0A02E9B
:10240000B12C42C0C3010A2C02C0959587950A944D
:10241000E2F7EB81FC819789A801B70180FF04C036
:10242000911104C0CF0109C0911105C08B819C811D
:102430000E94141104C08B819C810E94F110F1E074
:10244000AF1AB108B7FE10C08FEFC81AD80AAB8117
:10245000BC815196ED91FC915297EC0DFD1D64905D
:10246000712CB7E0AB2EB12C0F5F1F4F98012419D0
:102470003509EB81FC81848990E0281739070CF439
:10248000C1CFFFEFEF1AFF0A970128193909AB8175
:10249000BC8153968C9190E02817390724F4498029
:1024A0005A808201E3CF0F900F900F900F90DF9131
:1024B000CF911F910F91FF90EF90DF90CF90BF9041
:1024C000AF909F908F907F906F905F904F903F90D4
:1024D0002F9008958F929F92AF92BF92CF92DF92EA
:1024E000EF92FF920F931F93CF93DF937C016B01C9
:1024F0008A015901EB0109900020E9F72197C61BD9
:10250000D70B4F3087E2580759F4F70123892C9FE6
:10251000C0012D9F900D112404E510E0081B190B3C
:102520000E30F7E21F0789F4F70123892C9FC001C1
:102530002D9F900D112404E510E0081B190B17FFC7
:1025400002C00F5F1F4F15950795812C912C13C06A
:10255000F60161916F01F7018389889DA001899D32
:10256000500D1124400F511F9501C7010E943811D1
:10257000FFEF8F1A9F0A8C169D0654F3DF91CF91BF
:102580001F910F91FF90EF90DF90CF90BF90AF9091
:102590009F908F9008958F929F92AF92BF92CF920B
:1025A000DF92EF92FF920F931F93CF93DF93CDB7FC
:1025B000DEB76C01CB015A014901EDB6FEB6FB0155
:1025C000448155814F5F5F4F2DB73EB7241B350BBC
:1025D0000FB6F8943EBF0FBE2DBF0DB71EB70F5FED
:1025E0001F4F20E030E0B8010E94E91C9401A501D2
:1025F000B801C6010E946A120FB6F894FEBE0FBE63
:10260000EDBEDF91CF911F910F91FF90EF90DF9082
:10261000CF90BF90AF909F908F900895DC0152961D
:102620007C936E935197FB01849153968C935397AF
:102630003196E4915496EC935497FB013296E491D1
:102640005596EC935597FB013396649156966C938F
:10265000569757961C920895CF936435710570F57F
:1026600057FD2CC0403351054CF5DA01E3E0B59538
:10267000A795EA95E1F7C4E5CA9FF001CB9FF00D5D
:102680001124E60FF71F4770552761E070E001C085
:10269000660F4A95EAF740E050E0E80FF91F0BC0DB
:1026A000DF01A40FB51F58968C915897862B58962A
:1026B0008C934F5F5F4F4217530794F3CF91089568
:1026C000AF92BF92CF92DF92EF92FF920F931F9340
:1026D000CF93DF936C017A015901EB0164357105E9
:1026E000A8F457FD13C0403351055CF00FC0A8019A
:1026F0004E0D5F1DBE01C6010E94F1100F5F1F4FFE
:1027000002C000E010E00A151B058CF3DF91CF91A9
:102710001F910F91FF90EF90DF90CF90BF90AF90FF
:1027200008954F925F926F927F928F929F92AF9295
:10273000BF92CF92DF92EF92FF920F931F93CF93AE
:10274000DF93CDB7DEB728970FB6F894DEBF0FBE84
:10275000CDBF5C017B014A016901C901861B970B52
:1027600097FF08C0892D4801042F182F8F2D79015C
:10277000C62ED82EC8018819990997FF0AC0982D2E
:10278000892D4801092F182F9E2D8F2D7601C92ED6
:10279000D82E8016910631F5CE14DF042CF49E2D30
:1027A0008F2D7601C92ED82E96012E193F09A4012E
:1027B000B701C50128960FB6F894DEBF0FBECDBF96
:1027C000DF91CF911F910F91FF90EF90DF90CF900D
:1027D000BF90AF909F908F907F906F905F904F9041
:1027E0000C942C13EC14FD0431F5081519052CF488
:1027F000982D892D4801092F182F9801281939097A
:10280000A401B701C50128960FB6F894DEBF0FBE2C
:10281000CDBFDF91CF911F910F91FF90EF90DF908F
:10282000CF90BF90AF909F908F907F906F905F9070
:102830004F900C94601396012E193F0928014818F7
:102840005908C90137FF04C088279927821B930BB9
:10285000B20157FE04C066277727641975096624FC
:1028600057FC6094762C442737FD4095542F681709
:1028700079070CF06EC0C301B2012D833E834F83F4
:1028800058870E9480212B013C012D813E814F8180
:102890005885CA01B9010E9480219B01AC01C30186
:1028A000B2010E94E5203B018C01B401882777FD2D
:1028B0008095982F0E9480212B014C01CE14DF04BB
:1028C00024F520E030E040E05FE3642D752D882D95
:1028D000992D0E9481200E944D21AB01B701C501B5
:1028E0000E94F110262D372D402F512F642D752D6C
:1028F000882D992D0E9480202B014C0181E0E81A3F
:10290000F108EC14FD04ECF6A2C020E030E040E059
:102910005FE3642D752D882D992D0E9481200E94E2
:102920004D21AB01B701C5010E94F110262D372DB5
:10293000402F512F642D752D882D992D0E948120B7
:102940002B014C01EFEFEE1AFE0ACE14DF04ECF679
:102950007EC0CA01B9010E94802169837A838B837A
:102960009C83C301B2010E9480219B01AC0169815B
:102970007A818B819C810E94E520D62EC72E782EED
:10298000692EB701882777FD8095982F0E948021B6
:10299000F62EE72E582E492E081519050CF054C0B6
:1029A0000F5F1F4F26C020E030E040E05FE3D7011B
:1029B000F2016B2F7E2D8F2F942D0E9481200E947B
:1029C0004D21A801C5010E94F110B601C301272FB6
:1029D0003C2D492F562DD701F2016B2F7E2D8F2FC5
:1029E000942D0E948120F62EE72E582E492E01505C
:1029F000110980169106BCF22AC020E030E040E0C8
:102A00005FE3D701F2016B2F7E2D8F2F942D0E9453
:102A100081200E944D21A401C5010E94F110B60140
:102A2000C301272F3C2D492F562DD701F2016B2FC3
:102A30007E2D8F2F942D0E948120F62EE72E582E6A
:102A4000492EFFEF8F1A9F0A08151905B4F628962C
:102A50000FB6F894DEBF0FBECDBFDF91CF911F91AF
:102A60000F91FF90EF90DF90CF90BF90AF909F902D
:102A70008F907F906F905F904F9008952F923F922C
:102A80004F925F926F927F928F929F92AF92BF927E
:102A9000CF92DF92EF92FF920F931F93CF93DF932A
:102AA00000D000D000D0CDB7DEB75C01762E672E07
:102AB0003C832B83280117018A011E821D824CC092
:102AC0008D819E8197FD079643E0959587954A9560
:102AD000E1F7849D4001859D900C949D900C1124FC
:102AE0008D819E8168E070E00E946F2221E030E0DD
:102AF00002C0220F331F8A95E2F73A832983E72C1D
:102B0000F62CC12CD12C2B813C81820E931E19C036
:102B1000F401EC0DFD1DE491F0E029813A81E223FE
:102B2000F323A801B701C501EF2B19F00E94F110A2
:102B300002C00E9414113FEFC31AD30A8FEFE81AA4
:102B4000F80AC414D50424F32D813E812F5F3F4F32
:102B50003E832D830F5F1F4F2D813E81221533054C
:102B60000CF4AECF26960FB6F894DEBF0FBECDBFE5
:102B7000DF91CF911F910F91FF90EF90DF90CF9059
:102B8000BF90AF909F908F907F906F905F904F908D
:102B90003F902F900895682780E1689F900111244D
:102BA000622770E0362F2227492F50E0242B352B47
:102BB000CB01F4E095958795FA95E1F72827392719
:102BC000A3E0660F771FAA95E1F726273727C901EB
:102BD00008951F93CF93DF93EC01162F2FEF3FEF54
:102BE00005C06991C9010E94CB159C011150C8F71D
:102BF000C901DF91CF911F910895982FE2EEF2E085
:102C000080E02191921721F08F5F8031D1F780E031
:102C1000089580932201089580932301089580935D
:102C2000D10508951F93CF93DF939091D2059923F7
:102C300029F08091D3058F5F8093D3052091D4052F
:102C40008091D505921759F0803510F42BE001C022
:102C50002DE1820F8093D5059093D40503C08C5E3F
:102C60008093D5052091D505203A08F47AC080914B
:102C7000D6059091D705969587959093D705809323
:102C8000D6053091D305353028F098609093D7055C
:102C90008093D605205A2093D5051092D3058091B4
:102CA000D805882309F44DC08091D9058F5F8093A2
:102CB000D9058C3008F455C0C091D605D091D70500
:102CC0008C2F8F730E94FD15182FCE01C6E09695AC
:102CD0008795CA95E1F70E94FD1590E1199F900133
:102CE0001124822B9091CD0591110EC08093DA05AD
:102CF000982F94509D3440F01092D8058091DB05B8
:102D00008F5F8093DB052DC09091CD05E92FF0E01A
:102D1000E452FA4F80839F5F9093CD059091CD054B
:102D20008091DA05981750F01092D80580912C0602
:102D30008F5F80932C0681E08093CE051092D90599
:102D400010C08091D6059091D70588339B4049F4F7
:102D500081E08093D8051092D9051092CD0510928C
:102D6000CE05DF91CF911F910895BF92CF92DF9250
:102D7000EF92FF920F931F93CF93DF93CDB7DEB700
:102D80002E970FB6F894DEBF0FBECDBFBC018EE00C
:102D9000EEECF1E0DE01119601900D928A95E1F7DB
:102DA0006115710509F498C080E090E00E947E21D1
:102DB0009B01AC0160E070E080E89FE30E94E520A9
:102DC00020E030E040E05EE30E940C22E62ED72EA9
:102DD000C82EB92E8E010D5F1F4FFF24F394F8010A
:102DE000619171918F0180E090E00E947E219B01B2
:102DF000AC0160E074E284E79BE40E94E5209B0163
:102E0000AC0160E070E080E89FE30E94E5209B0158
:102E1000AC016E2D7D2D8C2D9B2D0E94E5200E94F6
:102E20004D21AB01BC01423051056105710530F007
:102E30004F3FFFEF5F076105710550F0F39487E0A6
:102E4000F812CDCF423051056105710530F444C010
:102E5000E6E0FE1609F440C006C041155105F1E058
:102E60006F077105C8F5FF20B9F11092800088E066
:102E700080938100809181008F29809381005093FD
:102E800089004093880080916F00826080936F007A
:102E900061E0809122010E94C51A60E080912301C7
:102EA0000E94C51A61E0809124010E94C51A6091B8
:102EB000D105809124012E960FB6F894DEBF0FBE87
:102EC000CDBFDF91CF911F910F91FF90EF90DF90D9
:102ED000CF90BF900C94FD1A2E960FB6F894DEBFDB
:102EE0000FBECDBFDF91CF911F910F91FF90EF905B
:102EF000DF90CF90BF900895CF9310922D0610923F
:102F00002E0610922F066091D105C1E06C278091AA
:102F100024010E94FD1AC093CF05CF9108956091BE
:102F2000D105809124010E94FD1A60E08091220168
:102F30000E94FD1A1092CF050895809130068111EC
:102F400005C081E0809330061092D80508958091E5
:102F5000CF058111FCCF0895BF92CF92DF92EF92FF
:102F6000FF920F931F93CF93DF93C82EF92ED62E87
:102F70002DE4261708F485C0C62FCD5F0E94A71741
:102F80006C2F8FEF9FEF0E94CB15AC2FB0E044E089
:102F9000B595A7954A95E1F7AE51BD4F2C91209379
:102FA0002D01CF70EC2FF0E0EE51FD4F20812093EA
:102FB0002E010DE211E0CC2DDF2D1AC07E01B9905B
:102FC0006B2D0E94CB15AB2DB0E034E0B595A795E5
:102FD0003A95E1F7AE51BD4F2C91F8012083D7010E
:102FE000EC91EF70F0E0EE51FD4F2081F80121836C
:102FF0000E5F1F4F2C2F2C192D1500F36D2D6F5FB9
:10300000660F80959095E62FF0E0E35DFE4FDC01C2
:1030100014E0B695A7951A95E1F7AF70BB27AE51AE
:10302000BD4F2C912083E62FEF5FF0E0E35DFE4F74
:10303000DC01AF70BB27AE51BD4F2C912083E62F32
:10304000EE5FF0E0E35DFE4FDC01AB2FBB27A29506
:10305000AF70AE51BD4F2C912083A62FAD5FB0E075
:10306000A35DBE4FE92FFF27EF70FF27EE51FD4F05
:1030700080818C93645F609331060E947C1781E0AD
:1030800001C080E0DF91CF911F910F91FF90EF90F1
:10309000DF90CF90BF900895FB012091CE052223B1
:1030A000D1F02091CD0523503081231708F42083DF
:1030B00040812DED35E050E0B9010E947425109259
:1030C000CE056091CD058CED95E00E94E91521E0DB
:1030D000883B904F09F020E0822F08951F920F92B5
:1030E0000FB60F9211242F933F934F935F936F93DB
:1030F0007F938F939F93AF93BF93EF93FF938091B1
:103100003006882329F08091CF05882309F449C02F
:103110008091CF058823B1F180912F06982F9F5F72
:1031200090932F06882309F446C02CC00E948F1765
:1031300080913206909133060196909333068093E6
:10314000320620C020912E0681E090E0022E01C0C0
:10315000880F0A94EAF7F0E0EB5DFE4F6081682388
:103160002F5F20932E06809122010E94FD1A8091EC
:103170002E06863038F010922E0680912D068F5F35
:1031800080932D0680912F06883010F010922F0624
:10319000809130068823C9F08091CF05882399F06B
:1031A00014C0809123010E94341B9091D005982770
:1031B0009093D205ADCFE0912D0680913106E817AE
:1031C00008F0B4CFBFCF0E941216FF91EF91BF91CC
:1031D000AF919F918F917F916F915F914F913F91AF
:1031E0002F910F900FBE0F901F901895E091E90658
:1031F000F091EA0620E030E009C02E5F3F4F808169
:103200009181280F391F0280F381E02D3097A9F7B3
:10321000C90108950F931F93CF93DF9300D0CDB7CB
:10322000DEB78091E7069091E8068E010F5F1F4F91
:10323000009729F40B5E16401A8309830AC0081B05
:10324000190B1A8309830E94F618800F911F9A8325
:10325000898389819A810F900F90DF91CF911F917F
:103260000F9108951F920F920FB60F9211242F9372
:103270003F938F939F93AF93BF9380913406909128
:103280003506A0913606B091370630913C06232FC3
:103290002D5F2D3720F40196A11DB11D05C0232FF0
:1032A0002A570296A11DB11D20933C068093340637
:1032B00090933506A0933606B09337068091380672
:1032C00090913906A0913A06B0913B060196A11D56
:1032D000B11D8093380690933906A0933A06B093B7
:1032E0003B06BF91AF919F918F913F912F910F908E
:1032F0000FBE0F901F9018950F931F938FB7F894E0
:10330000009134061091350620913606309137062B
:103310008FBFB801C9011F910F9108950F931F939B
:103320009FB7F894009138061091390620913A061B
:1033300030913B0686B5A89B06C08F3F21F00F5FFA
:103340001F4F2F4F3F4F9FBF322F212F102F00278E
:10335000080F111D211D311D42E0000F111F221FFA
:10336000331F4A95D1F7B801C9011F910F910895F4
:10337000CF92DF92EF92FF92CF93DF936B017C01AC
:103380000E948E19EB010EC00E948E196C1B7D0BE2
:10339000683E734038F081E0C81AD108E108F108AE
:1033A000C851DC4FC114D104E104F10469F7DF9185
:1033B000CF91FF90EF90DF90CF900895789484B5EF
:1033C000826084BD84B5816084BD85B5826085BD21
:1033D00085B5816085BDEEE6F0E080818160808307
:1033E000E1E8F0E0108280818260808380818160EA
:1033F0008083E0E8F0E0808181608083E1EBF0E0B1
:10340000808184608083E0EBF0E080818160808354
:10341000EAE7F0E08081846080838081826080833D
:103420008081816080838081806880831092C10068
:1034300008958E3008F08E5087702091CD0140E4C1
:10344000249F90011124822B80937C0080917A002C
:10345000806480937A0080917A0086FDFCCF209171
:10346000780030917900932F80E0AC01422B9A01D3
:10347000C90108951F93CF93DF93182FEB0161E0EB
:103480000E94C51A209711F460E004C0CF3FD10517
:1034900039F461E0812FDF91CF911F910C94FD1AD7
:1034A000E12FF0E0EA59F24FE491E330B9F028F46B
:1034B000E13051F0E230B1F50CC0E63019F1E730FF
:1034C00049F1E43079F514C084B5806884BDC7BD86
:1034D0002EC084B5806284BDC8BD29C080918000A3
:1034E000806880938000D0938900C09388001FC0BB
:1034F00080918000806280938000D0938B00C09385
:103500008A0015C08091B00080688093B000C0939D
:10351000B3000DC08091B00080628093B000C09372
:10352000B40005C0C038D1050CF0B3CFADCFDF91EA
:10353000CF911F910895833069F028F48130A1F074
:10354000823011F514C08630B1F08730C1F084307C
:10355000D9F404C0809180008F7703C080918000EF
:103560008F7D80938000089584B58F7702C084B5E5
:103570008F7D84BD08958091B0008F7703C08091C6
:10358000B0008F7D8093B0000895CF93DF9390E0DB
:10359000FC01E658F24F4491FC01E257F24F84914E
:1035A000882341F190E0880F991FFC01EA54F24F03
:1035B00025913491D9018455924FFC0185919491C4
:1035C000C82FD92F9FB7F8948C91611106C04095F0
:1035D00084238C938881842308C0623041F4242F93
:1035E000209582238C938881842B888302C0842B2E
:1035F0008C939FBFDF91CF9108950F931F93CF932B
:10360000DF931F92CDB7DEB7282F30E0F901EA59DA
:10361000F24F8491F901E658F24F1491F901E25703
:10362000F24F04910023D1F0882321F069830E9496
:103630009B1A6981E02FF0E0EE0FFF1FE455F24F77
:1036400085919491DC019FB7F8948C91611103C02E
:103650001095812301C0812B8C939FBF0F90DF9128
:10366000CF911F910F910895CF93DF93282F30E0D2
:10367000F901EA59F24F8491F901E658F24FD491D9
:10368000F901E257F24FC491CC2389F081110E94D5
:103690009B1AEC2FF0E0EE0FFF1FEE55F24F8591D5
:1036A0009491DC018C918D2321E030E011F420E035
:1036B00030E0C901DF91CF910895009729F0BC0156
:1036C00080E090E00C947E2408950F931F93CF9395
:1036D000DF9300D000D0CDB7DEB79B01AC01611500
:1036E00071058105910579F069833A834B835C8389
:1036F0000E94792429813A814B815C810E94A52214
:103700008B019C0103C000E010E09801B801C901E1
:103710000F900F900F900F90DF91CF911F910F910D
:103720000895CF92DF92EF92FF926B017C016217B6
:1037300073078407950764F4CA01B9016C197D0900
:103740008E099F090E94651BC60ED71EE81EF91E32
:10375000B601C701FF90EF90DF90CF900895FC0174
:10376000808191810C948D23CF93DF93EC0188812C
:103770009981009711F00E948D23198218821D8271
:103780001C821B821A82DF91CF9108950F931F93A1
:10379000CF93DF93EC018B016F5F7F4F888199811D
:1037A0000E948724009731F0998388831B830A83C2
:1037B00081E001C080E0DF91CF911F910F910895CA
:1037C000CF93DF93EC0188819981892B31F08A8135
:1037D0009B818617970708F00CC0CE010E94C61B7C
:1037E000882349F08C819D81892B19F4E881F98126
:1037F000108281E001C080E0DF91CF910895EF92C7
:10380000FF920F931F93CF93DF93EC017B018A010B
:10381000BA010E94E01B811104C0CE010E94B41BBA
:1038200007C01D830C83B701888199810E947D2583
:10383000CE01DF91CF911F910F91FF90EF900895EE
:10384000DC0111961C921E9213961C921E921297E6
:1038500015961C921E92149716961C92611571056E
:1038600059F0DB010D900020E9F7AD0141505109FD
:10387000461B570B0C94FF1B0895CF93DF93EC016D
:10388000FB018617970761F06081718161157105F1
:1038900029F0448155810E94FF1B02C00E94B41B85
:1038A000CE01DF91CF910895FC0111821082138225
:1038B00012821582148216820C943D1CCF93DF93E2
:1038C000D82FC92F6115710561F0DB010D90002023
:1038D000E9F7AD0141505109461B570B0E94FF1BF0
:1038E00002C00E94B41B8D2F9C2FDF91CF910895B1
:1038F000EF92FF920F931F93CF93DF93EC017B0125
:103900000C811D816115710511F480E016C041150F
:10391000510591F0040F151FB8010E94E01B882388
:10392000A1F3288139818C819D81B701820F931F7A
:103930000E947D251D830C8381E0DF91CF911F9133
:103940000F91FF90EF900895CF93DF9300D0CDB704
:10395000DEB769831A8241E050E0BE016F5F7F4F9E
:103960000E94781C0F900F90DF91CF910895EF92F5
:10397000FF920F931F93CF93DF93CDB7DEB72797B7
:103980000FB6F894DEBF0FBECDBF7C01CB014AE07D
:1039900050E08E010F5F1F4FB8010E949325F80180
:1039A00001900020E9F7AF0141505109401B510B34
:1039B000B801C7010E94781C27960FB6F894DEBFA5
:1039C0000FBECDBFDF91CF911F910F91FF90EF9070
:1039D00008950F931F93CF93DF93EB01411551058A
:1039E000E9F02097D9F0FC010481158120173107F7
:1039F00008F013C041505109021B130B4017510727
:103A000008F48A01FC0160817181620F731FA801B3
:103A1000CE010E948425C00FD11F1882DF91CF9163
:103A20001F910F9108950E94DE190E946209C6EF4E
:103A3000DDE10E940E0E2097E1F30E94F61DF9CF02
:103A4000FC0184859585FC01E05CFF4F208131817C
:103A5000FC01EE5BFF4F80819181281B390B2F7396
:103A60003327C9010895FC0184859585FC01E05C3C
:103A7000FF4F40815181FC01EE5BFF4F208131817E
:103A80004217530741F00190F081E02DE80FF91F34
:103A9000208130E002C02FEF3FEFC9010895FC0103
:103AA00084859585FC01E05CFF4F40815181FC01DC
:103AB000EE5BFF4F208131814217530781F0A081D7
:103AC000B181A80FB91F8C91208131812F5F3F4FA9
:103AD0002F73332731832083282F30E002C02FEF4C
:103AE0003FEFC9010895FC0181A1882329F0A48931
:103AF000B5898C9186FFFBCF11A20895CF93DF93F8
:103B0000FC0126853785D901A05CBF4F8D919C9122
:103B1000119701968F739927E901CE5BDF4F48819A
:103B2000598184179507D9F30D90BC91A02DA20F50
:103B3000B31F6C93A685B785A05CBF4F11969C936D
:103B40008E93A689B7892C9181E090E0078C02C002
:103B5000880F991F0A94E2F7282B2C9381E081A308
:103B60000488F589E02D80818064808381E090E085
:103B7000DF91CF91089508951F920F920FB60F9283
:103B800011242F933F934F938F939F93EF93FF9322
:103B90008091C00082FD1CC04091C6008091E30668
:103BA0009091E40601968F7399272091E506309154
:103BB000E6068217930771F0E091E306F091E406C0
:103BC000ED55F94F40839093E4068093E30602C0DD
:103BD0008091C600FF91EF919F918F914F913F91FE
:103BE0002F910F900FBE0F901F9018958DE396E0C8
:103BF0000E94201D892B11F00C94BB1D08951F926B
:103C00000F920FB60F9211242F933F938F939F9390
:103C1000EF93FF9320919F063091A0068091A1061B
:103C20009091A2062817390731F48091C1008F7D49
:103C30008093C10014C0E091A106F091A206E15A60
:103C4000F94F20818091A1069091A20601968F7371
:103C500099279093A2068093A1062093C600FF9116
:103C6000EF919F918F913F912F910F900FBE0F90E9
:103C70001F901895CF92DF92EF92FF92CF93DF9330
:103C8000EC016A017B01411581EE58076105710560
:103C9000F9F0EC89FD8981E090E008A002C0880F6E
:103CA000991F0A94E2F7808360E079E08DE390E069
:103CB000A70196010E94832221503109410951092F
:103CC0005695479537952795211580E1380798F047
:103CD000EC89FD89108260E874E88EE190E0A7012C
:103CE00096010E94832221503109410951095695BC
:103CF000479537952795E889F9893083EA89FB89C3
:103D0000208319A2EE89FF89408181E090E09C0127
:103D10000C8C02C0220F331F0A94E2F7422B40831F
:103D2000EE89FF8940819C010D8C02C0220F331F58
:103D30000A94E2F7422B4083EE89FF8940819C017F
:103D40000E8C02C0220F331F0A94E2F7422B4083ED
:103D5000EE89FF8920810F8C02C0880F991F0A9479
:103D6000E2F7809582238083DF91CF91FF90EF90DF
:103D7000DF90CF9008951092400610923F0688EE93
:103D800093E0A0E0B0E08093410690934206A093B8
:103D90004306B093440686EF92E090933E068093EC
:103DA0003D0683EA96E090934A06809349068FE5A4
:103DB00096E090934C0680934B0685EC90E09093B0
:103DC0004E0680934D0684EC90E0909350068093CD
:103DD0004F0680EC90E0909352068093510681EC60
:103DE00090E0909354068093530682EC90E0909379
:103DF00056068093550686EC90E090935806809383
:103E0000570684E08093590683E080935A0687E042
:103E100080935B0685E080935C0681E080935D067D
:103E20000895CF92DF92EF92FF920F931F93CF935B
:103E3000DF936C01EB017A01E60EF71E00E010E063
:103E40000BC06991D601ED91FC910190F081E02DBC
:103E5000C6010995080F191FCE15DF0591F7C80196
:103E6000DF91CF911F910F91FF90EF90DF90CF9056
:103E700008956115710581F0DB010D900020E9F7CF
:103E8000AD0141505109461B570BDC01ED91FC91EE
:103E90000280F381E02D099480E090E00895EF9294
:103EA000FF920F931F93CF93DF937C01EB0100E010
:103EB00010E0FE0121966491662351F0F701A08184
:103EC000B181ED91FC91C7010995080F191FF1CF40
:103ED000C801DF91CF911F910F91FF90EF9008954E
:103EE0000C94391FDC01ED91FC910190F081E02DE3
:103EF00009940F931F93CF93DF93EC016DE00E9421
:103F0000721F8C016AE0CE010E94721F9C01200F7B
:103F1000311FC901DF91CF911F910F9108950F9328
:103F20001F93CF93DF93EC010E944F1F8C01CE01B2
:103F30000E94791F9C01200F311FC901DF91CF9191
:103F40001F910F9108950F931F93CF93DF93EC016F
:103F50000E94391F8C01CE010E94791F9801280F01
:103F6000391FC901DF91CF911F910F9108954F9291
:103F70005F926F927F929F92AF92BF92CF92DF92A9
:103F8000EF92FF920F931F93CF93DF93CDB7DEB7DE
:103F9000A1970FB6F894DEBF0FBECDBF5C016A01DA
:103FA0007B01922E19A281E0821710F08AE0982EF0
:103FB0008E010F5D1F4F492C512C612C712CC701B4
:103FC000B601A30192010E9483228C2D929E80193A
:103FD0001124015011098A3014F4805D01C0895CFC
:103FE000F801808369017A01C114D104E104F1046C
:103FF00031F7B801C5010E94391FA1960FB6F89498
:10400000DEBF0FBECDBFDF91CF911F910F91FF900B
:10401000EF90DF90CF90BF90AF909F907F906F9088
:104020005F904F900895CF92DF92EF92FF920F939F
:104030001F93CF93DF93EC016A017B0121153105BA
:1040400079F4E881F9810190F081E02D642FDF910E
:10405000CF911F910F91FF90EF90DF90CF90099437
:104060002A30310519F477FD0EC02AE0B701A60108
:10407000CE01DF91CF911F910F91FF90EF90DF90D4
:10408000CF900C94B71F6DE20E94721F8C014427E1
:104090005527BA014C195D096E097F092AE0CE0146
:1040A0000E94B71F080F191FC801DF91CF911F9100
:1040B0000F91FF90EF90DF90CF9008959A01AB01A0
:1040C000662757FD6095762F0C9413200F931F934E
:1040D000CF93DF93EC019A01AB01662757FD609502
:1040E000762F0E9413208C01CE010E94791F980127
:1040F000280F391FC901DF91CF911F910F910895AA
:104100005058BB27AA270ED04DC13ED130F043D125
:1041100020F031F49F3F11F41EF433C10EF4E0950A
:10412000E7FB29C1E92F4FD180F3BA176207730764
:104130008407950718F071F49EF567C10EF4E095B9
:104140000B2EBA2FA02D0B01B90190010C01CA0151
:10415000A0011124FF27591B99F0593F50F4503EFC
:1041600068F11A16F040A22F232F342F4427585FEE
:10417000F3CF469537952795A795F0405395C9F706
:104180007EF41F16BA0B620B730B840BBAF09150BE
:10419000A1F0FF0FBB1F661F771F881FC2F70EC05D
:1041A000BA0F621F731F841F48F487957795679530
:1041B000B795F7959E3F08F0B3CF9395880F08F019
:1041C0009927EE0F9795879508950CD0EBC0E3D013
:1041D00040F0DAD030F021F45F3F19F0CCC051113B
:1041E00015C1CFC0F0D098F39923C9F35523B1F38B
:1041F000951B550BBB27AA2762177307840738F056
:104200009F5F5F4F220F331F441FAA1FA9F333D0B4
:104210000E2E3AF0E0E830D091505040E695001C68
:10422000CAF729D0FE2F27D0660F771F881FBB1F24
:10423000261737074807AB07B0E809F0BB0B802DFE
:10424000BF01FF2793585F4F2AF09E3F510568F04A
:1042500092C0DCC05F3FECF3983EDCF38695779527
:104260006795B795F7959F5FC9F7880F911D96954C
:10427000879597F90895E1E0660F771F881FBB1FA8
:10428000621773078407BA0720F0621B730B840B55
:10429000BA0BEE1F88F7E095089504D06894B11129
:1042A000B5C0089598D088F09F5790F0B92F9927FE
:1042B000B751A0F0D1F0660F771F881F991F1AF031
:1042C000BA95C9F712C0B13081F09FD0B1E008951E
:1042D0009CC0672F782F8827B85F39F0B93FCCF39F
:1042E000869577956795B395D9F73EF49095809527
:1042F000709561957F4F8F4F9F4F0895E89409C047
:1043000097FB3EF490958095709561957F4F8F4F08
:104310009F4F9923A9F0F92F96E9BB279395F6951E
:10432000879577956795B795F111F8CFFAF4BB0F9C
:1043300011F460FF1BC06F5F7F4F8F4F9F4F16C000
:10434000882311F096E911C0772321F09EE8872F8A
:10435000762F05C0662371F096E8862F70E060E046
:104360002AF09A95660F771F881FDAF7880F9695BF
:10437000879597F9089597F99F6780E870E060E066
:1043800008959FEF80EC089500240A9416161706EE
:1043900018060906089500240A9412161306140636
:1043A00005060895092E0394000C11F4882352F099
:1043B000BB0F40F4BF2B11F460FF04C06F5F7F4F51
:1043C0008F4F9F4F089557FD9058440F551F59F038
:1043D0005F3F71F04795880F97FB991F61F09F3FF2
:1043E00079F087950895121613061406551FF2CF1B
:1043F0004695F1DF08C0161617061806991FF1CF6B
:1044000086957105610508940895E894BB27662791
:104410007727CB0197F908950BD0C4CFB5DF28F0EB
:10442000BADF18F0952309F0A6CFABCF1124EECF59
:10443000CADFA0F3959FD1F3950F50E0551F629FFF
:10444000F001729FBB27F00DB11D639FAA27F00DED
:10445000B11DAA1F649F6627B00DA11D661F829F14
:104460002227B00DA11D621F739FB00DA11D621FF9
:10447000839FA00D611D221F749F3327A00D611D16
:10448000231F849F600D211D822F762F6A2F1124F8
:104490009F5750408AF0E1F088234AF0EE0FFF1F4B
:1044A000BB1F661F771F881F91505040A9F79E3F82
:1044B000510570F060CFAACF5F3FECF3983EDCF37C
:1044C000869577956795B795F795E7959F5FC1F7BF
:1044D000FE2B880F911D9695879597F9089597FB68
:1044E000072E16F4009407D077FD09D00E94CC2245
:1044F00007FC05D03EF4909581959F4F08957095E7
:1045000061957F4F0895A1E21A2EAA1BBB1BFD01E6
:104510000DC0AA1FBB1FEE1FFF1FA217B307E407A2
:10452000F50720F0A21BB30BE40BF50B661F771FFA
:10453000881F991F1A9469F76095709580959095DA
:104540009B01AC01BD01CF010895052E97FB16F428
:10455000009407D057FD0DD00E94832207FC09D09C
:104560007EF490958095709561957F4F8F4F9F4F0A
:10457000089550954095309521953F4F4F4F5F4F8F
:1045800008950E94E622A59F900DB49F900DA49FD0
:10459000800D911D11240895AA1BBB1B51E107C07A
:1045A000AA1FBB1FA617B70710F0A61BB70B881FC3
:1045B000991F5A95A9F780959095BC01CD01089552
:1045C000EE0FFF1F0590F491E02D0994A29FB0011A
:1045D000B39FC001A39F01D0B29F700D811D112414
:1045E000911D08950F931F93CF93DF938230910510
:1045F00010F482E090E0E091E906F091EA0620E014
:1046000030E0C0E0D0E023C0408151814817590715
:10461000A8F04817590761F482819381209719F017
:104620009B838A832EC09093EA068093E90629C073
:104630002115310529F04217530710F0A90102C0D6
:10464000BE01DF0102811381EF019A01F801309769
:10465000D9F62115310509F1281B390B2430310514
:1046600090F412968D919C9113976115710521F02C
:10467000FB019383828304C09093EA068093E9064A
:10468000FD01329644C0FD01E20FF31F8193919327
:10469000225031092D933C933AC02091E706309186
:1046A000E806232B41F4209102013091030130935D
:1046B000E8062093E70620910001309101012115C1
:1046C000310541F42DB73EB74091040150910501E9
:1046D000241B350BE091E706F091E806E217F3079B
:1046E000A0F42E1B3F0B2817390778F0AC014E5F62
:1046F0005F4F2417350748F04E0F5F1F5093E806B1
:104700004093E7068193919302C0E0E0F0E0CF018F
:10471000DF91CF911F910F910895EF92FF920F9328
:104720001F93CF93DF93009709F48EC0DC0112979B
:1047300013961C921E921297E090E906F090EA06FA
:10474000E114F10489F42D913C911197280F391F40
:104750008091E7069091E8068217930789F5B09358
:10476000E806A093E70670C0E70120E030E001C052
:10477000EA01CA17DB0738F44A815B819E014115C3
:104780005105B1F722C0AC0142505109FA01D3835F
:10479000C28300811181BC01600F711F6C177D07FE
:1047A00061F468817981600F711F6E5F7F4F718343
:1047B00060836A817B81738362832115310529F4CB
:1047C000B093EA06A093E9063FC0F901B383A28340
:1047D000E90149915991C40FD51FAC17BD0771F478
:1047E000DC019E918E91840F951F029691838083A8
:1047F00012968D919C91139793838283A0E0B0E0F1
:1048000002C0D7017C01F701828193810097C9F72B
:10481000C701029620813181820F931F2091E70604
:104820003091E8062817390779F4109729F4109287
:10483000EA061092E90604C013961C921E92129783
:10484000F092E806E092E706CDB7DEB7E6E00C941A
:10485000B3288F929F92AF92BF92CF92DF92EF9246
:10486000FF92CF93DF93EC01688179818A819B81EC
:10487000611571058105910521F464E279ED8BE5FF
:1048800097E02DE133EF41E050E00E94A52249017D
:104890005A019B01AC01A7EAB1E40E94C1226B015D
:1048A0007C01ACEEB4EFA50194010E948628C60EEF
:1048B000D71EE81EF91EF7FE06C081E0C81AD1080F
:1048C000E10880E8F80AC882D982EA82FB82E8948B
:1048D000F7F8B601C701DF91CF91FF90EF90DF901D
:1048E000CF90BF90AF909F908F9008950E94292401
:1048F000089586E091E00E942924089560930601BE
:104900007093070180930801909309010895A0E036
:10491000B0E0EDE8F4E20C949128EC01009729F462
:10492000CB010E94F222EC01B4C0DC01A60FB71F3C
:10493000FC013297AE17BF0718F4C0E0D0E0A9C061
:104940000081118106171707B0F00530110508F432
:10495000A0C0C80104978617970708F49AC00250B0
:104960001109061B170B0D931D9371836083CD01F5
:104970000E948D238EC06B01C01AD10A7C01E00E0B
:10498000F11EE091E906F091EA0620E030E080E0D7
:1049900090E048C0EE15FF05D1F58080918054016C
:1049A00042E0A40EB11CAC14BD0488F17401EC18F3
:1049B000FD08670122E0C20ED11C9E012250310980
:1049C00045E0C416D10478F04281538113965C937C
:1049D0004E9312971196FC92EE92F90171836083C7
:1049E0003A2F2B2F09C00E5F1F4F080D191DD9013B
:1049F0000D931C9332812381009721F0FC013283B7
:104A0000238347C03093E9062093EA0642C08081A1
:104A100091812817390708F49C0152814381CF0105
:104A2000E52FF42F309709F0B5CF8091E7069091EC
:104A3000E8068E159F05F1F426173707D8F4809104
:104A4000000190910101009741F48DB79EB720912C
:104A5000040130910501821B930BA817B90708F0D8
:104A60006CCFB093E806A093E706FE0132977183FE
:104A700060830FC0CB010E94F2227C01009709F4F1
:104A80005CCFA801BE010E947425CE010E948D2337
:104A9000E701CE01CDB7DEB7ECE00C94AD28FC0108
:104AA00088279927E89421912032E9F3293010F0E2
:104AB0002E30C8F32B3241F02D3239F4689404C003
:104AC0000E94B425820F911D219120532A30C0F3FA
:104AD0001EF4909581959F4F0895FB01DC01059090
:104AE0000D920020E1F70895FB01DC0102C0019066
:104AF0000D9241505040D8F70895FB01DC01019020
:104B00000D920020E1F70895FB01DC014150504077
:104B100048F001900D920020C9F701C01D9241504C
:104B20005040E0F70895FB019F01E8944230C4F043
:104B30004532B4F44A3029F497FB1EF490958195E0
:104B40009F4F642F77270E94CC22805D8A330CF020
:104B5000895D8193CB010097A1F716F45DE2519333
:104B60001082C9010C94E9277AE0979F902D879FC6
:104B7000802D910D11240895A0E1B0E0E2ECF5E262
:104B80000C9499280F89188D86E08C831A830983E9
:104B90008FEF9FE79E838D83AE01455E5F4F588BFD
:104BA0004F87698D7A8DCE0101960E94E025EF81B5
:104BB000F885E00FF11F10826096E4E00C94B528B0
:104BC000ACE0B0E0E6EEF5E20C948B287C016B01E2
:104BD0008A01FC0117821682838181FFC7C1882464
:104BE0008394912C8C0E9D1EF7019381F60193FD09
:104BF000859193FF81916F01882309F4B3C18532B8
:104C000039F493FD859193FF81916F01853229F4E9
:104C1000B70190E00E94F927E7CF712C312C20E0FA
:104C20002032A8F48B3261F028F4803251F08332C4
:104C300071F40BC08D3239F0803349F4216028C003
:104C40002260246025C0286023C0206121C027FD88
:104C500027C0382F30533A3078F426FF06C0FAE0E8
:104C60007F9E300D1124732E13C08AE0389E300DC4
:104C70001124332E20620CC08E3221F426FD72C125
:104C8000206406C08C3611F4206802C0883641F4D6
:104C9000F60193FD859193FF81916F018111C0CF42
:104CA000982F9554933018F09052933028F40C5F5D
:104CB0001F4FFFE3F9830DC0833631F0833771F066
:104CC000833509F05EC023C0F801808189830E5FBF
:104CD0001F4F66246394712C540115C02801F2E023
:104CE0004F0E511CF801A080B18026FF03C0672D34
:104CF00070E002C06FEF7FEFC5012C870E94DE27B6
:104D00003C0182012C856FE7262E222218C0280143
:104D1000F2E04F0E511CF801A080B18026FF03C0C5
:104D2000672D70E002C06FEF7FEFC5012C870E94F6
:104D3000D3273C012C8550E8252E222A820123FC12
:104D40001CC006C0B70180E290E00E94F9273A94A7
:104D5000832D90E068167906A8F30FC0F50127FCB3
:104D6000859127FE81915F01B70190E00E94F927AC
:104D700031103A94F1E06F1A71086114710471F7FF
:104D8000EEC0843611F0893641F5F80127FF07C0DF
:104D900060817181828193810C5F1F4F08C06081A7
:104DA0007181882777FD8095982F0E5F1F4F4FE602
:104DB000642E622297FF09C0909580957095619549
:104DC0007F4F8F4F9F4FF0E86F2A2AE030E0A40119
:104DD0000E942528A82EA81844C0853731F43FEE3C
:104DE000B32EB2222AE030E024C099EFB92EB222CD
:104DF0008F36B9F020F4883509F0B4C00DC0803783
:104E000021F0883709F0AEC002C020E1B22AB4FE1A
:104E10000BC084E0B82A08C024FF09C0E6E0BE2A1F
:104E200006C028E030E005C020E130E002C020E10B
:104E300032E0F801B7FE07C0608171818281938101
:104E40000C5F1F4F06C06081718180E090E00E5FB3
:104E50001F4FA4010E942528A82EA8188FE7682EAE
:104E60006B2066FE0BC0362D3E7FA71450F464FE07
:104E70000AC062FC08C0362D3E7E05C0BA2C362D15
:104E800003C0BA2C01C0B72C34FF0DC0FE01EA0DDF
:104E9000F11D8081803311F4397E09C032FF06C0D4
:104EA000B394B39404C0832F867809F0B39433FD90
:104EB00014C030FF0FC07A2CB31460F4730C7B184D
:104EC000B32C08C0B70180E290E03C870E94F9272C
:104ED000B3943C85B314B0F304C0B31410F43B187E
:104EE00001C0312C34FF12C0B70180E390E03C8751
:104EF0000E94F9273C8532FF1EC031FF03C088E5C0
:104F000090E002C088E790E0B7010CC0832F86785C
:104F100091F031FD02C080E201C08BE237FD8DE2ED
:104F2000B70190E00E94F92706C0B70180E390E046
:104F30000E94F9277A94A714C0F3AA94F401EA0D09
:104F4000F11DB701808190E00E94F927A110F5CFF3
:104F500006C0B70180E290E00E94F9273A94311030
:104F6000F8CF42CEF7012681378102C02FEF3FEF05
:104F7000C9012C96E2E10C94A728F999FECF92BDC5
:104F800081BDF89A992780B50895262FF999FECF0B
:104F90001FBA92BD81BD20BD0FB6F894FA9AF99A56
:104FA0000FBE01960895FC010590615070400110FC
:104FB000D8F7809590958E0F9F1F0895FC01615042
:104FC000704001900110D8F7809590958E0F9F1F2B
:104FD0000895DC01FC01672F71917723E1F7329787
:104FE00004C07C916D9370836291AE17BF07C8F3C4
:104FF00008950F931F93CF93DF938C01EB018B8167
:1050000081FD03C00FEF1FEF1AC082FF0DC02E817C
:105010003F818C819D812817390764F4E881F981EB
:105020000193F983E88306C0E885F985802F099507
:10503000892B41F78E819F8101969F838E83C801C2
:10504000DF91CF911F910F910895FA01AA2728307F
:1050500051F1203181F1E8946F936E7F6E5F7F4F45
:105060008F4F9F4FAF4FB1E03ED0B4E03CD0670FC1
:10507000781F891F9A1FA11D680F791F8A1F911D14
:10508000A11D6A0F711D811D911DA11D20D009F464
:1050900068943F912AE0269F11243019305D3193A6
:1050A000DEF6CF010895462F4770405D4193B3E08F
:1050B0000FD0C9F7F6CF462F4F70405D4A3318F036
:1050C000495D31FD4052419302D0A9F7EACFB4E0E7
:1050D000A6959795879577956795BA95C9F700979F
:1050E0006105710508959B01AC010A2E0694579540
:1050F000479537952795BA95C9F7620F731F841F97
:10510000951FA01D0895B7FF0C94C1220E94C122D3
:10511000821B930B08952F923F924F925F926F9252
:105120007F928F929F92AF92BF92CF92DF92EF9237
:10513000FF920F931F93CF93DF93CDB7DEB7CA1BB8
:10514000DB0B0FB6F894DEBF0FBECDBF09942A88E3
:10515000398848885F846E847D848C849B84AA848B
:10516000B984C884DF80EE80FD800C811B81AA8118
:10517000B981CE0FD11D0FB6F894DEBF0FBECDBFE3
:08518000ED010895F894FFCF42
:105188000000EB06200001000000030004000500F9
:10519800640000003C000F00050004002C01000022
:1051A8003A050C0B0A2A2A2A2A2A2A382C00000037
:1051B80000000000000000000000000000000000E7
:1051C80000000000000000000000000000000000D7
:1051D80000000000000000000000000000000000C7
:1051E80000000000000000000000000000000000B7
:1051F80000000000000000000000000000000000A7
:105208000000000000000000000000000000000096
:105218000000000000000000000000000000000086
:105228000000000000000000000000000000000076
:105238000000000000000000000000000000000066
:105248000000000000000000000000000001000055
:1052580001000800400000010004050D4D454E55B1
:105268000020202020202020202020202020202056
:105278002020202020202020202020202020202026
:105288002020202020202020202020202020202016
:105298002020202020202020202020202020202006
:1052A80020202020202020202020202020202020F6
:1052B8002020202020006D6D3A002100667265656F
:1052C8004D656D6F727928293D007374617274752C
:1052D800702066696E697368656400423120507594
:1052E80073686564004232205075736865640042D3
:1052F80033205075736865640042342050757368B4
:105308006564005374617473004261646765204E7C
:10531800756D6265723A004E756D2042616467650D
:1053280073205365656E3A007777772E7A61636FDD
:105338006E2E6F72672E7A61006C6F6164696E679A
:10534800207363686564756C650041424F5554204D
:1053580042414447455300532569005225693A257F
:1053680069000D0E131516191A1C232526292A2C37
:105378003234000000007E1D111F201D4F1D331DFB
:02538800731D93
:00000001FF
